:0400000080314428DF
:100008007E14803120007F08F600F701F70A0030DF
:100018000C190130F8003B001D181C1C1F281D106E
:10002800F7017808031D1F287A03031D1F28780885
:100038008031822080313B009D189C1C2F289D1008
:10004800F7017803031D2F287A08031D2F28780845
:100058008031822080317908031D34280130352809
:100068000030F5007508F900791C3D2822000E14AF
:100078003F2822000E1076082000FF007E1009009D
:1000880080314628F901FA017E1020008031B3281A
:100098007A082000A000A101A035A10DDC302007BE
:1000A80084008030213D850000083B0096009501C2
:1000B8007A082000A000A101A035A10D2008013E6A
:1000C800A2000030213DA300DC30220784008030EC
:1000D800233D850000083B009400940192019101A2
:1000E8009A0199019F178F309E051E08FC39013827
:1000F8009E001C149C14210013160800F4007408B8
:10010800F0007008FA007A08F000F101F035F10DFE
:10011800DC30700784008030713D850000083B00AA
:10012800960095017A08F000F101F035F10D70089C
:10013800013EF2000030713DF300DC3072078400AC
:100148008030733D85000008940093019F177A1C46
:10015800B02822000C16080022000C12080021000A
:1001680019088739683899001908FC390238990044
:100178008031CB2080318031D520803180314C20B6
:1001880080310B178B173B009B176400C928CB30B5
:1001980023008C00CF3021008C0003303D009500F7
:1001A8000800FE3023008E00FE3021008E0008007B
:0801B8006434323418340C34B5
:020000040001F9
:04000E00E4FFFFDF2D
:00000001FF
